:100000000C942A000C94CE010C9447000C944700E9
:100010000C9447000C9447000C9447000C94470044
:100020000C9447000C9447000C9447000C94FD017D
:100030000C9447000C9447000C9447000C94470024
:100040000C9447000C9447000C9447000C94470014
:100050000C94470011241FBECFE5D8E0DEBFCDBF12
:1000600010E0A0E6B0E0ECECF8E002C005900D92E4
:10007000A236B107D9F720E0A2E6B0E001C01D9298
:10008000A537B207E1F70E94BF000C9464040C94FA
:10009000000080916000882369F066EA84E00E9495
:1000A0003F04E0916D00F0916E0060E081E40995FD
:1000B0001092600081E00895CF9381E08093660004
:1000C00010926F0010926B001092710010927000ED
:1000D00080916C00813089F028F08230C9F0833043
:1000E00021F12FC0E0916D00F0916E0062E082E49A
:1000F000099581E080936F0024C0E0916D00F0913C
:100100006E0061E082E4099581E080936B0019C084
:10011000E0916D00F0916E0060E082E4099581E06D
:1001200080937100809372000CC0C1E0C0936C009A
:10013000E0916D00F0916E0061E082E40995C0935A
:100140006B0081E0CF9108950E944900FDCF40E00F
:100150000E94F80081E0089541E00E94F80081E0EB
:10016000089541E00E945F0181E0089540E00E940F
:100170005F0181E008950E94A40181E008958BEB66
:1001800090E0909368008093670086EB90E09093F6
:100190006A008093690081EB90E090936E008093F9
:1001A0006D008CE590E0909374008093730060E0A4
:1001B00081E40E94AC0061E081E40E94AC0062E056
:1001C00081E40E94AC0060E082E40E94AC0061E047
:1001D00082E40E94AC0062E082E40E94AC0062E033
:1001E00084E40E94A7000E94C3010E94A400FDCFE6
:1001F000823419F18434F1F1813409F058C041118D
:100200000DC02AB381E090E002C0880F991F6A9563
:10021000E2F7809582238ABB81E00895413009F09E
:1002200048C02AB381E090E002C0880F991F6A9508
:10023000E2F7822B8ABB81E0089541110DC027B3FC
:1002400081E090E002C0880F991F6A95E2F78095DF
:10025000822387BB81E00895413069F527B381E0AF
:1002600090E002C0880F991F6A95E2F7822B87BB46
:1002700081E0089541110DC021B381E090E002C0FA
:10028000880F991F6A95E2F78095822381BB81E0F0
:100290000895413091F421B381E090E002C0880FCD
:1002A000991F6A95E2F7822B81BB81E0089581E076
:1002B000089580E0089580E0089580E008958134F5
:1002C00019F08234F1F03AC041110DC02BB381E036
:1002D00090E002C0880F991F6A95E2F7809582230B
:1002E0008BBB81E00895413059F52BB381E090E05C
:1002F00002C0880F991F6A95E2F7822B8BBB81E0C1
:10030000089541110DC028B381E090E002C0880F2C
:10031000991F6A95E2F78095822388BB81E0089552
:10032000413081F428B381E090E002C0880F991F2A
:100330006A95E2F7822B88BB81E0089580E00895FA
:1003400080E0089580E00895813419F0823469F0E6
:1003500018C02BB381E090E002C0880F991F6A9506
:10036000E2F782278BBB81E0089528B381E090E01B
:1003700002C0880F991F6A95E2F7822788BB81E047
:10038000089580E0089585B7836085BF8BB780644A
:100390008BBF8FB780688FBF81E008951F920F9247
:1003A0000FB60F9211242F933F934F935F936F9348
:1003B0007F938F939F93AF93BF93EF93FF9380911E
:1003C0006600811109C080917000811105C0E09123
:1003D0007300F09174000995FF91EF91BF91AF9177
:1003E0009F918F917F916F915F914F913F912F914D
:1003F0000F900FBE0F901F9018951F920F920FB67F
:100400000F9211242F933F934F935F936F937F939A
:100410008F939F93AF93BF93EF93FF9340916400AB
:10042000509165004F5F5F4F5093650040936400AB
:1004300080916100882321F01092610010926C007D
:100440004115510509F44DC09A0136952795ABE742
:10045000B4E10E9455049695879562E3689F9001E8
:10046000699F300D112442175307D9F580916C0014
:10047000813021F080916C00833099F58091660085
:10048000811104C080917000882321F18091630064
:10049000811111C081E080936300E0916900F091C7
:1004A0006A0061E081E40995E0916900F0916A00D9
:1004B00061E082E40995E0916700F091680061E0F5
:1004C00081E40995E0916700F091680061E082E4C1
:1004D000099507C0E0916700F091680061E081E450
:1004E000099580917100882379F0809172008823AA
:1004F00059F083E692E0909365008093640081E078
:1005000080936C001092720080916400909165005D
:100510008336924009F0A2C11092650010926400E7
:1005200080916C00813009F468C038F0823009F4A1
:10053000DCC0833009F44CC191C1809162008230EB
:10054000B9F410926200E0916900F0916A0060E0F5
:1005500082E40995E0916900F0916A0061E082E42B
:100560000995E0916900F0916A0062E082E40995E2
:1005700080916600882331F1E0916900F0916A0072
:1005800060E081E40995E0916D00F0916E0061E01A
:1005900081E40995E0916900F0916A0062E082E4EB
:1005A0000995E0916D00F0916E0061E082E409959B
:1005B000809162008F5F809362008230C1F410925C
:1005C000660015C0E0916900F0916A0060E081E486
:1005D0000995E0916D00F0916E0061E081E409956C
:1005E000E0916900F0916A0062E082E409958091EF
:1005F0006C008F5F80936C0031C18091620082300B
:10060000B9F410926200E0916900F0916A0060E034
:1006100082E40995E0916900F0916A0061E082E46A
:100620000995E0916900F0916A0062E082E4099521
:1006300080916600882309F444C0E0916900F0913C
:100640006A0061E081E40995E0916D00F0916E002F
:1006500062E081E40995E0916900F0916A0061E04F
:1006600082E40995E0916D00F0916E0060E082E413
:100670000995809162008F5F80936200823051F40F
:1006800090916F00992331F01092660081E0809381
:10069000700025C0813049F490916B00992329F0B6
:1006A00010926600809370001AC08130C1F480916E
:1006B00071008823A1F01092660081E080937000A1
:1006C0000EC0E0916900F0916A0061E081E4099553
:1006D000E0916D00F0916E0062E081E409958091F7
:1006E0006C008F5F80936C00B9C080916200823093
:1006F00039F490916F00992319F01092620010C0A4
:10070000813039F490916B00992319F010926200B6
:1007100007C0813029F4809171008111109262002C
:1007200080916600882331F1E0916900F0916A00C0
:1007300062E081E40995E0916D00F0916E0061E066
:1007400081E40995E0916900F0916A0060E082E43B
:100750000995E0916D00F0916E0061E082E40995E9
:10076000809162008F5F80936200823059F5109211
:10077000660028C0809170008823B1F0E091690084
:10078000F0916A0062E081E40995E0916D00F091DA
:100790006E0061E081E40995E0916D00F0916E00DA
:1007A00061E082E409950EC0E0916900F0916A0071
:1007B00062E081E40995E0916D00F0916E0061E0E6
:1007C00081E4099580916C008F5F80936C0046C036
:1007D000809170008823A9F0E0916900F0916A008F
:1007E00060E082E40995E0916900F0916A0061E0BF
:1007F00082E40995E0916D00F0916E0062E082E480
:100800000995809162008230B9F410926200E09103
:100810006900F0916A0060E082E40995E091690066
:10082000F0916A0061E082E40995E0916900F0913D
:100830006A0062E082E40995E0916900F0916A0043
:1008400061E081E40995E0916D00F0916E0060E057
:1008500081E409951092700010926C00FF91EF9165
:10086000BF91AF919F918F917F916F915F914F91C8
:100870003F912F910F900FBE0F901F9018958830C9
:1008800090F493B7977B93BF93B7987F93BF62BF62
:1008900099B7916099BF9FB790689FBF93B7892B15
:1008A00083BF81E0089580E00895A29FB001B39FC7
:1008B000C001A39F700D811D1124911DB29F700D69
:0C08C000811D1124911D0895F894FFCFB4
:0208CC00010128
:00000001FF
